{
  "contractName": "Wallet",
  "abi": [
    {
      "inputs": [],
      "name": "numofFunders",
      "outputs": [
        {
          "internalType": "uint256",
          "name": "",
          "type": "uint256"
        }
      ],
      "stateMutability": "view",
      "type": "function",
      "constant": true
    },
    {
      "stateMutability": "payable",
      "type": "receive",
      "payable": true
    },
    {
      "inputs": [],
      "name": "transfer",
      "outputs": [],
      "stateMutability": "payable",
      "type": "function",
      "payable": true
    },
    {
      "inputs": [
        {
          "internalType": "uint256",
          "name": "withdrawAmount",
          "type": "uint256"
        }
      ],
      "name": "withdraw",
      "outputs": [],
      "stateMutability": "nonpayable",
      "type": "function"
    }
  ],
  "bytecode": "0x608060405234801561001057600080fd5b506102d7806100206000396000f3fe6080604052600436106100385760003560e01c806309095fa4146100445780632e1a7d4d1461006f5780638a4068dd146100985761003f565b3661003f57005b600080fd5b34801561005057600080fd5b506100596100a2565b60405161006691906101ab565b60405180910390f35b34801561007b57600080fd5b50610096600480360381019061009191906101f7565b6100a8565b005b6100a061013d565b005b60005481565b678ac7230489e800008111156100f3576040517f08c379a00000000000000000000000000000000000000000000000000000000081526004016100ea90610281565b60405180910390fd5b3373ffffffffffffffffffffffffffffffffffffffff166108fc829081150290604051600060405180830381858888f19350505050158015610139573d6000803e3d6000fd5b5050565b33600160008054815260200190815260200160002060006101000a81548173ffffffffffffffffffffffffffffffffffffffff021916908373ffffffffffffffffffffffffffffffffffffffff160217905550565b6000819050919050565b6101a581610192565b82525050565b60006020820190506101c0600083018461019c565b92915050565b600080fd5b6101d481610192565b81146101df57600080fd5b50565b6000813590506101f1816101cb565b92915050565b60006020828403121561020d5761020c6101c6565b5b600061021b848285016101e2565b91505092915050565b600082825260208201905092915050565b7f63616e6e6f74205769746864726177206d6f7265207468656e20322065746800600082015250565b600061026b601f83610224565b915061027682610235565b602082019050919050565b6000602082019050818103600083015261029a8161025e565b905091905056fea26469706673582212203357c9454c5a2f0e8d276e1e464f42213990ea2480b55fb4b7560554ed57017164736f6c63430008090033",
  "immutableReferences": {},
  "source": "// SPDX-License-Identifier: MIT\r\npragma solidity >=0.4.22 <0.9.0;\r\ncontract Wallet{\r\n\r\n    uint public numofFunders;\r\n    mapping(uint=>address) private funders;\r\n\r\nreceive() external payable {}\r\n    function transfer() external payable{\r\n\r\n        funders[numofFunders]=msg.sender;\r\n    } \r\n    function withdraw(uint withdrawAmount) external{\r\nrequire(withdrawAmount <=10000000000000000000,\"cannot Withdraw more then 2 eth\");\r\npayable(msg.sender).transfer(withdrawAmount);\r\n\r\n    }\r\n}",
  "sourcePath": "E:\\Wallet2\\contracts\\Wallet.sol",
  "compiler": {
    "name": "solc",
    "version": "0.8.9+commit.e5eed63a.Emscripten.clang"
  },
  "schemaVersion": "3.4.9",
  "updatedAt": "2022-08-31T10:49:25.683Z",
  "networkType": "ethereum",
  "devdoc": {
    "kind": "dev",
    "methods": {},
    "version": 1
  },
  "userdoc": {
    "kind": "user",
    "methods": {},
    "version": 1
  }
}